:100000000C9462000C948A000C948A000C948A0070
:100010000C948A000C948A000C948A000C948A0038
:100020000C948A000C948A000C948A000C948A0028
:100030000C948A000C948A000C948A000C948A0018
:100040000C9402040C948A000C94D0030C94AA0320
:100050000C948A000C948A000C948A000C948A00F8
:100060000C948A000C948A000000000025002800EF
:100070002B0000000000240027002A0000000000E0
:1000800023002600290004040404040404040202DA
:100090000202020203030303030301020408102007
:1000A0004080010204081020010204081020000012
:1000B0000008000201000003040700000000000027
:1000C0000000B90611241FBECFEFD8E0DEBFCDBFC0
:1000D00011E0A0E0B1E0E0E0F3E102C005900D9294
:1000E000A234B107D9F722E0A2E4B1E001C01D9229
:1000F000A638B207E1F710E0C2E6D0E004C02197CD
:10010000FE010E947309C136D107C9F70E944C0451
:100110000C947E090C940000CF92DF92EF92FF9234
:100120000F931F93CF93DF936C017A018B01C0E093
:10013000D0E0CE15DF0589F0D8016D918D01D60193
:10014000ED91FC910190F081E02DC6010995892B7C
:1001500011F47E0102C02196ECCFC701DF91CF914F
:100160001F910F91FF90EF90DF90CF900895089529
:1001700080E090E00895FC01538D448D252F30E000
:10018000842F90E0821B930B541710F0CF960895A4
:1001900001970895FC01918D828D981761F0828DF1
:1001A000DF01A80FB11D5D968C91928D9F5F9F73AB
:1001B000928F90E008958FEF9FEF0895FC01918D4D
:1001C000828D981731F0828DE80FF11D858D90E0BA
:1001D00008958FEF9FEF0895FC01918D228D892F57
:1001E00090E0805C9F4F821B91098F73992708953F
:1001F00089EE91E00E94EC0021E0892B09F420E0D7
:10020000822F0895FC01848DDF01A80FB11DA35A30
:10021000BF4F2C91848D90E001968F739927848F26
:10022000A689B7892C93A089B1898C9180648C931D
:10023000938D848D981306C00288F389E02D808108
:100240008F7D80830895EF92FF920F931F93CF933A
:10025000DF93EC0181E0888F9B8D8C8D981305C016
:10026000E889F989808185FD24C0F62E0B8D10E088
:100270000F5F1F4F0F731127E02E8C8DE8120CC0FB
:100280000FB607FCFACFE889F989808185FFF5CFA1
:10029000CE010E940201F1CF8B8DFE01E80FF11D0E
:1002A000E35AFF4FF0820B8FEA89FB8980818062DD
:1002B00007C0EE89FF896083E889F98980818064BD
:1002C000808381E090E0DF91CF911F910F91FF90AB
:1002D000EF900895CF93DF93EC01888D8823C9F0C8
:1002E000EA89FB89808185FD05C0A889B9898C913F
:1002F00086FD0FC00FB607FCF5CF808185FFF2CFDA
:10030000A889B9898C9185FFEDCFCE010E940201A9
:10031000E7CFDF91CF91089580E090E0892B29F01D
:100320000E94F80081110C9400000895833081F040
:1003300028F4813099F08230A1F008958730A9F037
:100340008830B9F08430D1F4809180008F7D03C073
:10035000809180008F7780938000089584B58F7797
:1003600002C084B58F7D84BD08958091B0008F77E1
:1003700003C08091B0008F7D8093B0000895CF932B
:10038000DF93E1EBF0E08491EDE9F0E0D491E9E86E
:10039000F0E0C491CC2391F081110E949601EC2FE2
:1003A000F0E0EE0FFF1FE458FF4FA591B491EC91E0
:1003B000ED2381E090E021F480E002C080E090E055
:1003C000DF91CF9108951F93CF93DF93282F30E0D3
:1003D000F901E255FF4F8491F901E656FF4FD491A0
:1003E000F901EA57FF4FC491CC23C9F0162F8111B0
:1003F0000E949601EC2FF0E0EE0FFF1FE859FF4F2F
:10040000A591B4918FB7F894111105C09C91ED2F6F
:10041000E095E92302C0EC91ED2BEC938FBFDF91C7
:10042000CF911F91089561E08DE00E94E3018BEA76
:1004300094E00197F1F760E08DE00C94E3013FB7A1
:10044000F8948091470190914801A0914901B091A1
:100450004A0126B5A89B05C02F3F19F00196A11DA2
:10046000B11D3FBFBA2FA92F982F8827820F911D4A
:10047000A11DB11DBC01CD0142E0660F771F881F91
:10048000991F4A95D1F708958F929F92AF92BF928C
:10049000CF92DF92EF92FF926B017C010E941F02CC
:1004A0004B015C01C114D104E104F104F1F00E949C
:1004B0001F02DC01CB0188199909AA09BB09883EF2
:1004C0009340A105B10570F321E0C21AD108E108FB
:1004D000F10888EE880E83E0981EA11CB11CC1149F
:1004E000D104E104F10419F7DDCFFF90EF90DF9024
:1004F000CF90BF90AF909F908F900895009769F034
:10050000FC0101900020E9F73197AF01481B590B1E
:10051000BC0189EE91E00C948C0080E090E008959D
:100520008F929F92AF92BF920F931F93CF93DF93BF
:10053000CDB7DEB7A1970FB6F894DEBF0FBECDBF23
:1005400019A2423008F44AE08E010F5D1F4F842E3D
:10055000912CA12CB12CA50194010E943D09E62FFC
:10056000B901CA0101501109EA3014F4E05D01C07B
:10057000E95CD801EC93232B242B252B61F7C801D0
:100580000E947E02A1960FB6F894DEBF0FBECDBFCB
:10059000DF91CF911F910F91BF90AF909F908F905F
:1005A00008954F925F926F927F928F929F92AF9237
:1005B000BF92CF92DF92EF92FF926B017C019B0181
:1005C000AC010E942409882319F082E191E01AC04D
:1005D00046015701E894B7F82FEF3FEF4FE75FE789
:1005E000C501B4010E942409811110C02FEF3FEF13
:1005F0004FE75FE7C501B4010E945307181634F4B2
:1006000086E191E00E947E027C018FC02FEF3FEFD8
:100610004FE75FE4C701B6010E94B20818161CF448
:100620008AE191E0EFCF2FEF3FEF4FE75FECC7019B
:10063000B6010E94530787FDF3CF20E030E0A90107
:10064000C701B6010E94530787FF11C0E091E9017D
:10065000F091EA010190F081E02D6DE289EE91E0E8
:1006600009955C01F7FAF094F7F8F09402C0A12C18
:10067000B12C2AE037ED43EA5BE3C701B6010E94E3
:10068000E7062B013C010E94D1076B017C010E940F
:1006900000089B01AC01C301B2010E94E6062B01D8
:1006A0003C014AE0C701B6010E9490027C01EA0CBD
:1006B000FB1CE091E901F091EA010190F081E02D4D
:1006C0006EE289EE91E00995E80EF91E20E030E037
:1006D00040E251E4C301B2010E94B7082B013C0182
:1006E0000E94D1074B01A12CB12C4AE0C501B401F5
:1006F0000E949002E80EF91EC501B4010E94000894
:100700009B01AC01C301B2010E94E60620E030E08B
:1007100040E251E40E94B7080E94D10780E090E0D7
:100720004AE00E949002E80EF91E8EE191E00E94DC
:100730007E028E0D9F1DFF90EF90DF90CF90BF90B7
:10074000AF909F908F907F906F905F904F900895A3
:100750000E9479091F920F920FB60F9211242F93C6
:100760003F934F935F936F937F938F939F93AF9339
:10077000BF93EF93FF9389EE91E00E940201FF91F6
:10078000EF91BF91AF919F918F917F916F915F9109
:100790004F913F912F910F900FBE0F901F90189582
:1007A0001F920F920FB60F9211242F938F939F9346
:1007B000EF93FF93E091F901F091FA018081E091CC
:1007C000FF01F091000282FD12C09081809102022F
:1007D0008F5F8F7320910302821751F0E091020224
:1007E000F0E0E751FE4F958F8093020201C08081B7
:1007F000FF91EF919F918F912F910F900FBE0F90CE
:100800001F9018951F920F920FB60F9211242F93DD
:100810003F938F939F93AF93BF93809143019091A8
:100820004401A0914501B09146013091420123E07D
:10083000230F2D3720F40196A11DB11D05C026E818
:10084000230F0296A11DB11D209342018093430105
:1008500090934401A0934501B093460180914701D4
:1008600090914801A0914901B0914A010196A11DC2
:10087000B11D8093470190934801A0934901B09323
:100880004A01BF91AF919F918F913F912F910F900E
:100890000FBE0F901F901895789484B5826084BD28
:1008A00084B5816084BD85B5826085BD85B5816074
:1008B00085BD80916E00816080936E0010928100F2
:1008C00080918100826080938100809181008160AD
:1008D000809381008091800081608093800080916E
:1008E000B10084608093B1008091B00081608093FA
:1008F000B00080917A00846080937A0080917A00C1
:10090000826080937A0080917A00816080937A007F
:1009100080917A00806880937A001092C100E7EAA3
:10092000F0E02491E3E9F0E08491882399F090E0ED
:10093000880F991FFC01EE58FF4FA591B491FC015F
:10094000E859FF4F859194918FB7F894EC91E22B81
:10095000EC938FBF60E08DE00E94E301EDE9F0E0F1
:100960002491E9E8F0E084918823C1F090E0880FB9
:10097000991FFC01EE58FF4FC591D491FC01E85935
:10098000FF4FA591B4919FB7F8948881E22FE0952D
:100990008E2388838C91E823EC939FBFE091F9012B
:1009A000F091FA0182E08083E091F501F091F60187
:1009B0001082E091F701F091F8018FEC80831092A2
:1009C0000102E091FD01F091FE0186E08083E0915B
:1009D000FB01F091FC01808180618083E091FB014B
:1009E000F091FC01808188608083E091FB01F091AF
:1009F000FC01808180688083E091FB01F091FC0123
:100A000080818F7D80830E94BF01892BE1F70E9446
:100A1000BF01892BE1F30E941F020E94000860932E
:100A2000CB017093CC018093CD019093CE01C3E5AF
:100A3000D1E08E010E94BF01892BE1F70E94BF0126
:100A4000892BE1F30E941F020E9400082091CB0134
:100A50003091CC014091CD015091CE010E94E6062B
:100A6000F80161937193819391938F010E941F020A
:100A70000E9400086093CB017093CC018093CD015C
:100A80009093CE01F1E00B3C1F07A1F660E070E00F
:100A9000CB0129913991499159910E94E70621E0B2
:100AA000CB3CD207B1F720E030E040EF51E40E94A8
:100AB000580720E030E04AE754E40E94580760936A
:100AC0004F0170935001809351019093520181E244
:100AD00091E00E947E0260914F01709150018091DF
:100AE0005101909152010E94D10220E030E04AE78A
:100AF00054E460914F0170915001809151019091A7
:100B000052010E9458079B01AC0160E070E080E850
:100B10009FE30E94580760934B0170934C018093B0
:100B20004D0190934E0180E391E00E947E0260911E
:100B30004B0170914C0180914D0190914E010E94AA
:100B4000D102C0904F01D0905001E0905101F0903F
:100B5000520120E030E040E85EE3C701B6010E94A8
:100B6000B7084B015C016093E5017093E601809347
:100B7000E7019093E8010E94CA07072E000C880B3A
:100B8000990B0E9402089B01AC01C501B4010E94AF
:100B9000E60620E030E04AE754E40E94B70860939C
:100BA000DD017093DE018093DF019093E00120E08E
:100BB00030E044E352E4C701B6010E94B70820E0E8
:100BC00030E044EB53E40E9458074B015C01609312
:100BD000E1017093E2018093E3019093E4010E94AC
:100BE000CA07072E000C880B990B0E9402089B0174
:100BF000AC01C501B4010E94E60620E030E04AE7FE
:100C000054E40E94B7086093D9017093DA0180938D
:100C1000DB019093DC0120E030E040E05FE3C701BE
:100C2000B6010E94B7086B017C016093D5017093F7
:100C3000D6018093D7019093D8010E94CA07072E4E
:100C4000000C880B990B0E9402089B01AC01C701A4
:100C5000B6010E94E60620E030E04AE754E40E9434
:100C6000B7086093D1017093D2018093D301909320
:100C7000D4010E94BF01892BE1F3CEE1D0E00E94B4
:100C8000BF01892BE1F70E94BF01892BE1F3C090DE
:100C9000E101D090E201E090E301F090E4012091C5
:100CA000E5013091E6014091E7015091E801C7016B
:100CB000B6010E94E7060E94D1070E9444022091DB
:100CC000D9013091DA014091DB015091DC01609152
:100CD000DD017091DE018091DF019091E0010E94C1
:100CE000E7060E94D1076230710548F0660F771F52
:100CF000660F771F65507109CB010197F1F70E94CC
:100D000013026091D5017091D6018091D701909125
:100D1000D8010E94D1070E9444026091D1017091D4
:100D2000D2018091D3019091D4010E94D107623009
:100D3000710540F0CB01880F991F880F991F059707
:100D40000197F1F70E9413028091CF019091D00199
:100D50000196BE010E9429099093D0018093CF0192
:100D6000892B21F4C701B6010E94D1020E948C0197
:100D700086CFE9EEF1E01382128288EE93E0A0E0E4
:100D8000B0E084839583A683B78384E091E0918368
:100D9000808385EC90E09587848784EC90E097874A
:100DA000868780EC90E0918B808B81EC90E0938B38
:100DB000828B82EC90E0958B848B86EC90E0978B15
:100DC000868B118E128E138E148E08955058BB2769
:100DD000AA270E94FE060C9478080E946A0838F040
:100DE0000E94710820F039F49F3F19F426F40C9406
:100DF00067080EF4E095E7FB0C946108E92F0E9468
:100E0000890858F3BA17620773078407950720F01B
:100E100079F4A6F50C94AB080EF4E0950B2EBA2FDE
:100E2000A02D0B01B90190010C01CA01A0011124F0
:100E3000FF27591B99F0593F50F4503E68F11A169C
:100E4000F040A22F232F342F4427585FF3CF46952D
:100E500037952795A795F0405395C9F77EF41F164F
:100E6000BA0B620B730B840BBAF09150A1F0FF0F19
:100E7000BB1F661F771F881FC2F70EC0BA0F621F05
:100E8000731F841F48F4879577956795B795F795F5
:100E90009E3F08F0B0CF9395880F08F09927EE0F8A
:100EA0009795879508950E943D0808F481E008957C
:100EB0000E946C070C9478080E94710858F00E94F8
:100EC0006A0840F029F45F3F29F00C946108511141
:100ED0000C94AC080C9467080E94890868F3992365
:100EE000B1F3552391F3951B550BBB27AA27621726
:100EF0007307840738F09F5F5F4F220F331F441F33
:100F0000AA1FA9F335D00E2E3AF0E0E832D0915066
:100F10005040E695001CCAF72BD0FE2F29D0660F53
:100F2000771F881FBB1F261737074807AB07B0E896
:100F300009F0BB0B802DBF01FF2793585F4F3AF09C
:100F40009E3F510578F00C9461080C94AC085F3F0B
:100F5000E4F3983ED4F3869577956795B795F79522
:100F60009F5FC9F7880F911D9695879597F908950A
:100F7000E1E0660F771F881FBB1F621773078407A6
:100F8000BA0720F0621B730B840BBA0BEE1F88F7B5
:100F9000E09508950E94D1076894B1110C94AC08B3
:100FA00008950E94910888F09F5798F0B92F9927CB
:100FB000B751B0F0E1F0660F771F881F991F1AF044
:100FC000BA95C9F714C0B13091F00E94AB08B1E0F6
:100FD00008950C94AB08672F782F8827B85F39F0F5
:100FE000B93FCCF3869577956795B395D9F73EF4DD
:100FF00090958095709561957F4F8F4F9F4F089585
:10100000E89409C097FB3EF49095809570956195A2
:101010007F4F8F4F9F4F9923A9F0F92F96E9BB2758
:101020009395F695879577956795B795F111F8CFD4
:10103000FAF4BB0F11F460FF1BC06F5F7F4F8F4F3F
:101040009F4F16C0882311F096E911C0772321F035
:101050009EE8872F762F05C0662371F096E8862FCD
:1010600070E060E02AF09A95660F771F881FDAF724
:10107000880F9695879597F90895990F0008550F51
:10108000AA0BE0E8FEEF16161706E807F907C0F00E
:1010900012161306E407F50798F0621B730B840B16
:1010A000950B39F40A2661F0232B242B252B21F4F0
:1010B00008950A2609F4A140A6958FEF811D811D90
:1010C000089597F99F6780E870E060E008959FEFCA
:1010D00080EC089500240A941616170618060906CF
:1010E000089500240A94121613061406050608959E
:1010F000092E0394000C11F4882352F0BB0F40F426
:10110000BF2B11F460FF04C06F5F7F4F8F4F9F4F65
:10111000089557FD9058440F551F59F05F3F71F0E7
:101120004795880F97FB991F61F09F3F79F087954E
:101130000895121613061406551FF2CF4695F1DFD7
:1011400008C0161617061806991FF1CF8695710567
:10115000610508940895E894BB2766277727CB019B
:1011600097F908950E943D0808F48FEF08950E94B2
:10117000CA080C9478080E946A0838F00E94710826
:1011800020F0952311F00C9461080C946708112449
:101190000C94AC080E94890870F3959FC1F3950FD9
:1011A00050E0551F629FF001729FBB27F00DB11DEB
:1011B000639FAA27F00DB11DAA1F649F6627B00D7B
:1011C000A11D661F829F2227B00DA11D621F739F64
:1011D000B00DA11D621F839FA00D611D221F749F72
:1011E0003327A00D611D231F849F600D211D822FB9
:1011F000762F6A2F11249F5750409AF0F1F08823E0
:101200004AF0EE0FFF1FBB1F661F771F881F91500C
:101210005040A9F79E3F510580F00C9461080C9452
:10122000AC085F3FE4F3983ED4F3869577956795D5
:10123000B795F795E7959F5FC1F7FE2B880F911D36
:101240009695879597F908950E943D08880B990B0C
:10125000089597FB072E16F4009407D077FD09D068
:101260000E945F0907FC05D03EF4909581959F4F41
:101270000895709561957F4F0895A1E21A2EAA1BDB
:10128000BB1BFD010DC0AA1FBB1FEE1FFF1FA21736
:10129000B307E407F50720F0A21BB30BE40BF50B33
:1012A000661F771F881F991F1A9469F760957095BC
:1012B000809590959B01AC01BD01CF010895AA1BBB
:1012C000BB1B51E107C0AA1FBB1FA617B70710F031
:1012D000A61BB70B881F991F5A95A9F78095909563
:1012E000BC01CD010895EE0FFF1F0590F491E02D94
:1012F000099481E090E0F8940C947E09F894FFCF73
:101300000000000023018C00BB006A01EC00CA0051
:10131000DE006E616E00696E66006F7666000D0A13
:1013200000506572696F646F20286D73293A200040
:101330004672657175656E6369612028487A293A3D
:0213400020008B
:00000001FF
