:100000000C9462000C948A000C948A000C948A0070
:100010000C948A000C948A000C948A000C948A0038
:100020000C948A000C948A000C948A000C948A0028
:100030000C948A000C948A000C948A000C948A0018
:100040000C94F3030C948A000C94C1030C949B034E
:100050000C948A000C948A000C948A000C948A00F8
:100060000C948A000C948A000000000024002700F1
:100070002A0000000000250028002B0000000000DE
:1000800023002600290004040404040404040202DA
:100090000202020203030303030301020408102007
:1000A0004080010204081020010204081020000012
:1000B0000008000201000003040700000000000027
:1000C0000000F70611241FBECFEFD8E0DEBFCDBF82
:1000D00011E0A0E0B1E0ECE7F3E102C005900D9281
:1000E000A234B107D9F722E0A2E4B1E001C01D9229
:1000F000A637B207E1F710E0C2E6D0E004C02197CE
:10010000FE010E94B109C136D107C9F70E943D0422
:100110000C94BC090C940000CF92DF92EF92FF92F6
:100120000F931F93CF93DF936C017A018B01C0E093
:10013000D0E0CE15DF0589F0D8016D918D01D60193
:10014000ED91FC910190F081E02DC6010995892B7C
:1001500011F47E0102C02196ECCFC701DF91CF914F
:100160001F910F91FF90EF90DF90CF900895089529
:1001700080E090E00895FC01538D448D252F30E000
:10018000842F90E0821B930B541710F0CF960895A4
:1001900001970895FC01918D828D981761F0828DF1
:1001A000DF01A80FB11D5D968C91928D9F5F9F73AB
:1001B000928F90E008958FEF9FEF0895FC01918D4D
:1001C000828D981731F0828DE80FF11D858D90E0BA
:1001D00008958FEF9FEF0895FC01918D228D892F57
:1001E00090E0805C9F4F821B91098F73992708953F
:1001F00089ED91E00E94EC0021E0892B09F420E0D8
:10020000822F0895FC01848DDF01A80FB11DA35A30
:10021000BF4F2C91848D90E001968F739927848F26
:10022000A689B7892C93A089B1898C9180648C931D
:10023000938D848D981306C00288F389E02D808108
:100240008F7D80830895EF92FF920F931F93CF933A
:10025000DF93EC0181E0888F9B8D8C8D981305C016
:10026000E889F989808185FD24C0F62E0B8D10E088
:100270000F5F1F4F0F731127E02E8C8DE8120CC0FB
:100280000FB607FCFACFE889F989808185FFF5CFA1
:10029000CE010E940201F1CF8B8DFE01E80FF11D0E
:1002A000E35AFF4FF0820B8FEA89FB8980818062DD
:1002B00007C0EE89FF896083E889F98980818064BD
:1002C000808381E090E0DF91CF911F910F91FF90AB
:1002D000EF900895CF93DF93EC01888D8823C9F0C8
:1002E000EA89FB89808185FD05C0A889B9898C913F
:1002F00086FD0FC00FB607FCF5CF808185FFF2CFDA
:10030000A889B9898C9185FFEDCFCE010E940201A9
:10031000E7CFDF91CF91089580E090E0892B29F01D
:100320000E94F80081110C9400000895833081F040
:1003300028F4813099F08230A1F008958730A9F037
:100340008830B9F08430D1F4809180008F7D03C073
:10035000809180008F7780938000089584B58F7797
:1003600002C084B58F7D84BD08958091B0008F77E1
:1003700003C08091B0008F7D8093B0000895CF932B
:10038000DF93E1EBF0E08491EDE9F0E0D491E9E86E
:10039000F0E0C491CC2391F081110E949601EC2FE2
:1003A000F0E0EE0FFF1FE458FF4FA591B491EC91E0
:1003B000ED2381E090E021F480E002C080E090E055
:1003C000DF91CF9108951F93CF93DF93EBEBF0E094
:1003D0009491E7EAF0E0D491E3E9F0E0C491CC2312
:1003E000D9F0182F992319F0892F0E949601EC2F2C
:1003F000F0E0EE0FFF1FEE58FF4FA591B4918FB7BD
:10040000F894111105C09C91ED2FE095E92302C0ED
:10041000EC91ED2BEC938FBFDF91CF911F9108955D
:100420003FB7F8948091470190914801A09149010C
:10043000B0914A0126B5A89B05C02F3F19F001963F
:10044000A11DB11D3FBFBA2FA92F982F8827820F5A
:10045000911DA11DB11DBC01CD0142E0660F771FAA
:10046000881F991F4A95D1F708958F929F92AF9256
:10047000BF92CF92DF92EF92FF926B017C010E94BC
:1004800010024B015C01C114D104E104F104F1F04C
:100490000E941002DC01CB0188199909AA09BB0945
:1004A000883E9340A105B10570F321E0C21AD1083E
:1004B000E108F10888EE880E83E0981EA11CB11CAB
:1004C000C114D104E104F10419F7DDCFFF90EF90DE
:1004D000DF90CF90BF90AF909F908F90089500973E
:1004E00069F0FC0101900020E9F73197AF01481B4A
:1004F000590BBC0189ED91E00C948C0080E090E0F8
:1005000008958F929F92AF92BF920F931F93CF93B4
:10051000DF93CDB7DEB7A1970FB6F894DEBF0FBE5D
:10052000CDBF19A2423008F44AE08E010F5D1F4F83
:10053000842E912CA12CB12CA50194010E947B0941
:10054000E62FB901CA0101501109EA3014F4E05D47
:1005500001C0E95CD801EC93232B242B252B61F7F8
:10056000C8010E946F02A1960FB6F894DEBF0FBEBD
:10057000CDBFDF91CF911F910F91BF90AF909F9012
:100580008F9008954F925F926F927F928F929F9279
:10059000AF92BF92CF92DF92EF92FF926B017C01FC
:1005A0009B01AC010E946209882319F082E191E06D
:1005B0001AC046015701E894B7F82FEF3FEF4FE715
:1005C0005FE7C501B4010E946209811110C02FEFDD
:1005D0003FEF4FE75FE7C501B4010E94910718168E
:1005E00034F486E191E00E946F027C018FC02FEF0E
:1005F0003FEF4FE75FE4C701B6010E94F00818160D
:100600001CF48AE191E0EFCF2FEF3FEF4FE75FEC73
:10061000C701B6010E94910787FDF3CF20E030E0CB
:10062000A901C701B6010E94910787FF11C0E0919F
:10063000D901F091DA010190F081E02D6DE289EDB0
:1006400091E009955C01F7FAF094F7F8F09402C094
:10065000A12CB12C2AE037ED43EA5BE3C701B601D8
:100660000E9425072B013C010E940F086B017C01B1
:100670000E943E089B01AC01C301B2010E94240705
:100680002B013C014AE0C701B6010E9481027C01B6
:10069000EA0CFB1CE091D901F091DA010190F081A4
:1006A000E02D6EE289ED91E00995E80EF91E20E05B
:1006B00030E040E251E4C301B2010E94F5082B0191
:1006C0003C010E940F084B01A12CB12C4AE0C5014E
:1006D000B4010E948102E80EF91EC501B4010E9416
:1006E0003E089B01AC01C301B2010E94240720E037
:1006F00030E040E251E40E94F5080E940F0880E0DB
:1007000090E04AE00E948102E80EF91E8EE191E03D
:100710000E946F028E0D9F1DFF90EF90DF90CF9093
:10072000BF90AF909F908F907F906F905F904F9011
:1007300008950E94B7091F920F920FB60F921124CD
:100740002F933F934F935F936F937F938F939F93D9
:10075000AF93BF93EF93FF9389ED91E00E94020165
:10076000FF91EF91BF91AF919F918F917F916F9189
:100770005F914F913F912F910F900FBE0F901F905F
:1007800018951F920F920FB60F9211242F938F93EB
:100790009F93EF93FF93E091E901F091EA0180814B
:1007A000E091EF01F091F00182FD12C09081809103
:1007B000F2018F5F8F732091F301821751F0E09166
:1007C000F201F0E0E752FE4F958F8093F20101C0F5
:1007D0008081FF91EF919F918F912F910F900FBE8C
:1007E0000F901F9018951F920F920FB60F92112421
:1007F0002F933F938F939F93AF93BF938091430128
:1008000090914401A0914501B0914601309142017F
:1008100023E0230F2D3720F40196A11DB11D05C043
:1008200026E8230F0296A11DB11D2093420180935B
:10083000430190934401A0934501B09346018091F8
:10084000470190914801A0914901B0914A01019658
:10085000A11DB11D8093470190934801A0934901C8
:10086000B0934A01BF91AF919F918F913F912F918A
:100870000F900FBE0F901F901895789484B58260EA
:1008800084BD84B5816084BD85B5826085BD85B534
:10089000816085BD80916E00816080936E001092B2
:1008A000810080918100826080938100809181002D
:1008B00081608093810080918000816080938000BE
:1008C0008091B10084608093B1008091B00081601C
:1008D0008093B00080917A00846080937A00809148
:1008E0007A00826080937A0080917A0081608093A0
:1008F0007A0080917A00806880937A001092C1001B
:10090000E7EAF0E02491E3E9F0E08491882399F0AC
:1009100090E0880F991FFC01E859FF4FA591B49111
:10092000FC01EE58FF4F859194918FB7F894EC91AC
:10093000E22BEC938FBF80E00E94E301EDE9F0E051
:100940002491E9E8F0E084918823C1F090E0880FD9
:10095000991FFC01E859FF4FC591D491FC01EE5855
:10096000FF4FA591B4919FB7F8948881E22FE0954D
:100970008E2388838C91E823EC939FBFE091E9015B
:10098000F091EA0182E08083E091E501F091E601D7
:100990001082E091E701F091E8018FEC80831092E2
:1009A000F101E091ED01F091EE0186E08083E091AC
:1009B000EB01F091EC01808180618083E091EB019B
:1009C000F091EC01808188608083E091EB01F091EF
:1009D000EC01808180688083E091EB01F091EC0173
:1009E00080818F7D80830E94BF01892BE1F70E9467
:1009F000BF01892BE1F30E9410020E943E08609320
:100A0000CB017093CC018093CD019093CE01C3E5CF
:100A1000D1E00E94BF01892BE1F70E94BF01892B21
:100A2000E1F30E9410020E943E082091CB01309118
:100A3000CC014091CD015091CE010E9424076993D1
:100A40007993899399930E9410020E943E086093C3
:100A5000CB017093CC018093CD019093CE0121E026
:100A6000CB3CD207B1F6C3E5D1E060E070E0CB014A
:100A700029913991499159910E94250741E0CB3C38
:100A8000D407B1F720E030E040EF51E40E94960730
:100A900020E030E04AE754E40E94960760934F015B
:100AA00070935001809351019093520181E291E043
:100AB0000E946F0260914F0170915001809151012D
:100AC000909152010E94C20220E030E04AE754E4D3
:100AD00060914F01709150018091510190915201AC
:100AE0000E9496079B01AC0160E070E080E89FE304
:100AF0000E94960760934B0170934C0180934D01C7
:100B000090934E0180E391E00E946F0260914B014F
:100B100070914C0180914D0190914E010E94C20252
:100B200020E030E044EB52E460914F0170915001BD
:100B300080915101909152010E94F50820E030E02F
:100B400044EB53E40E9496076B017C016093D5014E
:100B50007093D6018093D7019093D8010E94080822
:100B6000072E000C880B990B0E9440089B01AC01DA
:100B7000C701B6010E94240720E030E04AE754E4B0
:100B80000E94F5086093D1017093D2018093D30144
:100B90009093D4010E94BF01892BE1F3CBEAD4E00A
:100BA0000EE110E00E94BF01892BE1F76091D501B1
:100BB0007091D6018091D7019091D8010E940F08C1
:100BC0002B013C010E9435026091D1017091D2014C
:100BD0008091D3019091D4010E940F086B017C0198
:100BE0005B016230710540F0CB01880F991F880FBF
:100BF000991F05970197F1F781E00E94E301CE016B
:100C00000197F1F780E00E94E3010E94BF01892B68
:100C1000E1F3C301B2010E94350282E0A816B104DB
:100C200050F0CC0CDD1CCC0CDD1CE5E0CE1AD1085C
:100C3000C6010197F1F781E00E94E301CE0101971F
:100C4000F1F780E00E94E301E090CF01F090D00145
:100C50000E9410029701220F331F220F331FA90198
:100C60004D5A5E4F6A010E943E082091CB0130919F
:100C7000CC014091CD015091CE010E942407F60194
:100C800060837183828393830E9410020E943E08D6
:100C90006093CB017093CC018093CD019093CE01F2
:100CA000C7010196B8010E9467095C019093D001C9
:100CB0008093CF0153E5E52E51E0F52E60E070E022
:100CC000CB01F70121913191419151917F010E9416
:100CD0002507FBECEF16F1E0FF0699F720E030E086
:100CE00040EF51E40E94960720E030E04AE754E4E8
:100CF0000E94960760934F017093500180935101B9
:100D00009093520120E030E044EB52E40E94F50859
:100D100020E030E044EB53E40E9496076B017C0135
:100D20006093D5017093D6018093D7019093D80139
:100D30000E940808072E000C880B990B0E9440089F
:100D40009B01AC01C701B6010E94240720E030E0FE
:100D50004AE754E40E94F5086093D1017093D201F0
:100D60008093D3019093D401AB28F1F58EE191E00B
:100D70000E946F0281E291E00E946F0260914F0138
:100D80007091500180915101909152010E94C202D4
:100D900020E030E04AE754E460914F017091500147
:100DA00080915101909152010E9496079B01AC01E4
:100DB00060E070E080E89FE30E94960760934B013B
:100DC00070934C0180934D0190934E0180E391E02C
:100DD0000E946F0260914B0170914C0180914D0116
:100DE00090914E010E94C2020E948C01DBCEE9ED7F
:100DF000F1E01382128288EE93E0A0E0B0E08483F9
:100E00009583A683B78384E091E09183808385EC0A
:100E100090E09587848784EC90E09787868780ECC4
:100E200090E0918B808B81EC90E0938B828B82ECB5
:100E300090E0958B848B86EC90E0978B868B118E5F
:100E4000128E138E148E08955058BB27AA270E9425
:100E50003C070C94B6080E94A80838F00E94AF081E
:100E600020F039F49F3F19F426F40C94A5080EF4F1
:100E7000E095E7FB0C949F08E92F0E94C70858F300
:100E8000BA17620773078407950720F079F4A6F56F
:100E90000C94E9080EF4E0950B2EBA2FA02D0B014F
:100EA000B90190010C01CA01A0011124FF27591BAF
:100EB00099F0593F50F4503E68F11A16F040A22FB5
:100EC000232F342F4427585FF3CF46953795279526
:100ED000A795F0405395C9F77EF41F16BA0B620B25
:100EE000730B840BBAF09150A1F0FF0FBB1F661F6C
:100EF000771F881FC2F70EC0BA0F621F731F841FAF
:100F000048F4879577956795B795F7959E3F08F0D4
:100F1000B0CF9395880F08F09927EE0F9795879596
:100F200008950E947B0808F481E008950E94AA07B2
:100F30000C94B6080E94AF0858F00E94A80840F030
:100F400029F45F3F29F00C949F0851110C94EA0892
:100F50000C94A5080E94C70868F39923B1F35523A0
:100F600091F3951B550BBB27AA27621773078407BC
:100F700038F09F5F5F4F220F331F441FAA1FA9F352
:100F800035D00E2E3AF0E0E832D091505040E69540
:100F9000001CCAF72BD0FE2F29D0660F771F881FA1
:100FA000BB1F261737074807AB07B0E809F0BB0B94
:100FB000802DBF01FF2793585F4F3AF09E3F5105A8
:100FC00078F00C949F080C94EA085F3FE4F3983E95
:100FD000D4F3869577956795B795F7959F5FC9F791
:100FE000880F911D9695879597F90895E1E0660F12
:100FF000771F881FBB1F621773078407BA0720F08B
:10100000621B730B840BBA0BEE1F88F7E0950895F3
:101010000E940F086894B1110C94EA0808950E9488
:10102000CF0888F09F5798F0B92F9927B751B0F0A3
:10103000E1F0660F771F881F991F1AF0BA95C9F75C
:1010400014C0B13091F00E94E908B1E008950C9409
:10105000E908672F782F8827B85F39F0B93FCCF3BC
:10106000869577956795B395D9F73EF490958095D9
:10107000709561957F4F8F4F9F4F0895E89409C0F9
:1010800097FB3EF490958095709561957F4F8F4FBB
:101090009F4F9923A9F0F92F96E9BB279395F695D1
:1010A000879577956795B795F111F8CFFAF4BB0F4F
:1010B00011F460FF1BC06F5F7F4F8F4F9F4F16C0B3
:1010C000882311F096E911C0772321F09EE8872F3D
:1010D000762F05C0662371F096E8862F70E060E0F9
:1010E0002AF09A95660F771F881FDAF7880F969572
:1010F000879597F90895990F0008550FAA0BE0E816
:10110000FEEF16161706E807F907C0F012161306C9
:10111000E407F50798F0621B730B840B950B39F409
:101120000A2661F0232B242B252B21F408950A266F
:1011300009F4A140A6958FEF811D811D089597F9AF
:101140009F6780E870E060E008959FEF80EC08956D
:1011500000240A9416161706180609060895002496
:101160000A9412161306140605060895092E039410
:10117000000C11F4882352F0BB0F40F4BF2B11F484
:1011800060FF04C06F5F7F4F8F4F9F4F089557FDE3
:101190009058440F551F59F05F3F71F04795880FE5
:1011A00097FB991F61F09F3F79F08795089512167C
:1011B00013061406551FF2CF4695F1DF08C0161628
:1011C00017061806991FF1CF8695710561050894D9
:1011D0000895E894BB2766277727CB0197F90895F0
:1011E0000E947B0808F48FEF08950E9408090C9470
:1011F000B6080E94A80838F00E94AF0820F0952396
:1012000011F00C949F080C94A50811240C94EA0882
:101210000E94C70870F3959FC1F3950F50E0551FCA
:10122000629FF001729FBB27F00DB11D639FAA273B
:10123000F00DB11DAA1F649F6627B00DA11D661F8A
:10124000829F2227B00DA11D621F739FB00DA11DAB
:10125000621F839FA00D611D221F749F3327A00D65
:10126000611D231F849F600D211D822F762F6A2F01
:1012700011249F5750409AF0F1F088234AF0EE0F66
:10128000FF1FBB1F661F771F881F91505040A9F793
:101290009E3F510580F00C949F080C94EA085F3F34
:1012A000E4F3983ED4F3869577956795B795F795CF
:1012B000E7959F5FC1F7FE2B880F911D9695879547
:1012C00097F908950E947B08880B990B089597FB66
:1012D000072E16F4009407D077FD09D00E949D09CF
:1012E00007FC05D03EF4909581959F4F0895709529
:1012F00061957F4F0895A1E21A2EAA1BBB1BFD0129
:101300000DC0AA1FBB1FEE1FFF1FA217B307E407E4
:10131000F50720F0A21BB30BE40BF50B661F771F3C
:10132000881F991F1A9469F760957095809590951C
:101330009B01AC01BD01CF010895AA1BBB1B51E16C
:1013400007C0AA1FBB1FA617B70710F0A61BB70B35
:10135000881F991F5A95A9F780959095BC01CD01DA
:101360000895EE0FFF1F0590F491E02D099481E0A0
:0C13700090E0F8940C94BC09F894FFCFB6
:10137C000000000023018C00BB006A01EC00CA00D5
:10138C00DE006E616E00696E66006F7666000D0A97
:10139C0000506572696F646F20286D73293A2000C4
:1013AC004672657175656E6369612028487A293AC1
:0213BC0020000F
:107E0000112484B714BE81FFF0D085E080938100F7
:107E100082E08093C00088E18093C10086E0809377
:107E2000C20080E18093C4008EE0C9D0259A86E02C
:107E300020E33CEF91E0309385002093840096BBD3
:107E4000B09BFECF1D9AA8958150A9F7CC24DD24C4
:107E500088248394B5E0AB2EA1E19A2EF3E0BF2EE7
:107E6000A2D0813461F49FD0082FAFD0023811F036
:107E7000013811F484E001C083E08DD089C08234E0
:107E800011F484E103C0853419F485E0A6D080C0E4
:107E9000853579F488D0E82EFF2485D0082F10E0AE
:107EA000102F00270E291F29000F111F8ED06801E7
:107EB0006FC0863521F484E090D080E0DECF843638
:107EC00009F040C070D06FD0082F6DD080E0C81688
:107ED00080E7D80618F4F601B7BEE895C0E0D1E017
:107EE00062D089930C17E1F7F0E0CF16F0E7DF06D8
:107EF00018F0F601B7BEE89568D007B600FCFDCFD4
:107F0000A601A0E0B1E02C9130E011968C91119780
:107F100090E0982F8827822B932B1296FA010C0160
:107F200087BEE89511244E5F5F4FF1E0A038BF0790
:107F300051F7F601A7BEE89507B600FCFDCF97BE46
:107F4000E89526C08437B1F42ED02DD0F82E2BD052
:107F50003CD0F601EF2C8F010F5F1F4F84911BD097
:107F6000EA94F801C1F70894C11CD11CFA94CF0C13
:107F7000D11C0EC0853739F428D08EE10CD085E9AC
:107F80000AD08FE07ACF813511F488E018D01DD067
:107F900080E101D065CF982F8091C00085FFFCCF94
:107FA0009093C60008958091C00087FFFCCF809118
:107FB000C00084FD01C0A8958091C6000895E0E648
:107FC000F0E098E1908380830895EDDF803219F02E
:107FD00088E0F5DFFFCF84E1DECF1F93182FE3DFCA
:107FE0001150E9F7F2DF1F91089580E0E8DFEE27F6
:047FF000FF270994CA
:027FFE00040479
:0400000300007E007B
:00000001FF
