:100000000C9462000C948A000C948A000C948A0070
:100010000C948A000C948A000C948A000C948A0038
:100020000C948A000C948A000C948A000C948A0028
:100030000C948A000C948A000C948A000C948A0018
:100040000C9499030C948A000C9409040C94E30317
:100050000C948A000C948A000C948A000C948A00F8
:100060000C948A000C948A000000000024002700F1
:100070002A0000000000250028002B0000000000DE
:1000800023002600290004040404040404040202DA
:100090000202020203030303030301020408102007
:1000A0004080010204081020010204081020000012
:1000B0000008000201000003040700000000000027
:1000C0000000460611241FBECFEFD8E0DEBFCDBF33
:1000D00011E0A0E0B1E0EAECF1E102C005900D9280
:1000E000A234B107D9F722E0A2E4B1E001C01D9229
:1000F000A430B207E1F710E0C2E6D0E004C02197D7
:10010000FE010E94D808C136D107C9F70E943B04FE
:100110000C94E3080C940000833081F028F48130C3
:1001200099F08230A1F008958730A9F08830B9F0B5
:100130008430D1F4809180008F7D03C08091800055
:100140008F7780938000089584B58F7702C084B53F
:100150008F7D84BD08958091B0008F7703C080911A
:10016000B0008F7D8093B0000895CF93DF93E1EBD3
:10017000F0E08491EDE9F0E0D491E9E8F0E0C49199
:10018000CC2391F081110E948C00EC2FF0E0EE0F57
:10019000FF1FE458FF4FA591B491EC91ED2381E04E
:1001A00090E021F480E002C080E090E0DF91CF9108
:1001B00008951F93CF93DF93EBEBF0E09491E7EA80
:1001C000F0E0D491E3E9F0E0C491CC23D1F0182F12
:1001D000992319F0892F0E948C00EC2FF0E0EE0F8C
:1001E000FF1FEE58FF4FA591B4919FB7F8941111DE
:1001F00004C08C91D095D82302C0EC91DE2BDC9307
:100200009FBFDF91CF911F9108953FB7F8948091E0
:10021000630190916401A0916501B091660126B5DA
:10022000A89B05C02F3F19F00196A11DB11D3FBF2E
:10023000BA2FA92F982F8827820F911DA11DB11DBC
:10024000BC01CD0142E0660F771F881F991F4A95B8
:10025000D1F708958F929F92AF92BF92CF92DF9283
:10026000EF92FF926B017C010E9405014B015C0142
:10027000C114D104E104F104F1F00E940501DC0194
:10028000CB0188199909AA09BB09883E9340A105A9
:10029000B10570F321E0C21AD108E108F10888EE37
:1002A000880E83E0981EA11CB11CC114D104E10486
:1002B000F10419F7DDCFFF90EF90DF90CF90BF9062
:1002C000AF909F908F900895CF92DF92EF92FF9220
:1002D0000F931F93CF93DF936C017A018B01C0E0E2
:1002E000D0E0CE15DF0581F0D8016D918D01D601EA
:1002F000ED91FC910190F081E02DC6010995892BCB
:1003000011F02196EECF7E01C701DF91CF911F91B1
:100310000F91FF90EF90DF90CF900895089580E0C7
:1003200090E00895FC01538D448D252F30E0842FFB
:1003300090E0821B930B541710F0CF96089501970D
:100340000895FC01918D828D981761F0828DDF01F7
:10035000A80FB11D5D968C91928D9F5F9F73928FB8
:1003600090E008958FEF9FEF0895FC01918D828DAD
:10037000981731F0828DE80FF11D858D90E008957A
:100380008FEF9FEF0895FC01918D228D892F90E0D2
:10039000805C9F4F821B91098F739927089587E690
:1003A00091E00E94C30121E0892B09F420E0822F13
:1003B0000895FC01848DDF01A80FB11DA35ABF4F22
:1003C0002C91848D90E001968F739927848FA68954
:1003D000B7892C93A089B1898C91837080648C93A8
:1003E000938D848D981306C00288F389E02D808157
:1003F0008F7D80830895EF92FF920F931F93CF9389
:10040000DF93EC0181E0888F9B8D8C8D981305C064
:10041000E889F989808185FD26C0F62E0B8D10E0D4
:100420000F5F1F4F0F731127E02E8C8DE8120CC049
:100430000FB607FCFACFE889F989808185FFF5CFEF
:10044000CE010E94D901F1CF8B8DFE01E80FF11D85
:10045000E35AFF4FF0829FB7F8940B8FEA89FB892C
:10046000808180620AC09FB7F894EE89FF8960831B
:10047000E889F98980818370806480839FBF81E0EF
:1004800090E0DF91CF911F910F91FF90EF90089531
:10049000CF93DF93EC01888D8823C9F0EA89FB892B
:1004A000808185FD05C0A889B9898C9186FD0FC022
:1004B0000FB607FCF5CF808185FFF2CFA889B989F7
:1004C0008C9185FFEDCFCE010E94D901E7CFDF915E
:1004D000CF91089580E090E0892B29F00E94CF0110
:1004E00081110C9400000895009769F0FC010190BF
:1004F0000020E9F73197AF01481B590BBC0187E693
:1005000091E00C94640180E090E008952F923F9276
:100510004F925F926F927F928F929F92AF92BF9213
:10052000CF92DF92EF92FF920F931F93CF93DF93BF
:10053000CDB7DEB7A4970FB6F894DEBF0FBECDBF20
:100540004B015C019B01AC010E94B108882319F0AA
:1005500082E191E01AC075016401E894F7F82FEF89
:100560003FEF4FE75FE7C701B6010E94B108811175
:1005700010C02FEF3FEF4FE75FE7C701B6010E94C2
:10058000E006181634F486E191E00E9474028C01B2
:10059000AFC02FEF3FEF4FE75FE4C501B4010E940A
:1005A0003F0818161CF48AE191E0EFCF2FEF3FEFE0
:1005B0004FE75FECC501B4010E94E00687FDF3CF71
:1005C00020E030E0A901C501B4010E94E00687FFE8
:1005D0000BC06DE287E691E00E94FB016C01B7FA67
:1005E000B094B7F8B09402C0C12CD12C2AE037EDFA
:1005F00043EA5BE3C501B4010E9474064B015C0150
:100600000E945E072B013C010E948D079B01AC01FB
:10061000C501B4010E9473064B015C0119A27E0161
:1006200081E2E80EF11CEAA2FBA2C301B2012AE0BA
:1006300030E040E050E00E94B60829013A01605DD8
:10064000F70162937F01232B242B252B71F7CF0118
:100650000E9474028C016EE287E691E00E94FB0129
:10066000800F911F8C010C0D1D1D83E0F82E9AE068
:10067000292E312C412C512CFA94FF20C9F120E075
:1006800030E040E251E4C501B4010E9444084B014E
:100690005C010E945E079B0140E050E019A26AA045
:1006A0007BA06CA3C32ED42EE52ECA01B901A201F2
:1006B00091010E94B608605DF30162933F0121152C
:1006C00031054105510589F7CF010E947402080FD9
:1006D000191F6CA17C2D8D2D9E2D0E948D079B01D5
:1006E000AC01C501B4010E9473064B015C01C4CF8B
:1006F0008EE191E00E947402800F911FA4960FB6C4
:10070000F894DEBF0FBECDBFDF91CF911F910F9147
:10071000FF90EF90DF90CF90BF90AF909F908F9021
:100720007F906F905F904F903F902F9008950E9420
:10073000DE081F920F920FB60F9211242F933F9352
:100740008F939F93AF93BF9380915F0190916001CE
:10075000A0916101B091620130915E0123E0230F0D
:100760002D3720F40196A11DB11D05C026E8230FE9
:100770000296A11DB11D20935E0180935F019093AD
:100780006001A0936101B093620180916301909137
:100790006401A0916501B09166010196A11DB11D92
:1007A0008093630190936401A0936501B093660107
:1007B000BF91AF919F918F913F912F910F900FBE5D
:1007C0000F901F9018951F920F920FB60F92112441
:1007D0002F933F934F935F936F937F938F939F9349
:1007E000AF93BF93EF93FF9387E691E00E94D90107
:1007F000FF91EF91BF91AF919F918F917F916F91F9
:100800005F914F913F912F910F900FBE0F901F90CE
:1008100018951F920F920FB60F9211242F938F935A
:100820009F93EF93FF93E0917701F091780180819E
:10083000E0917D01F0917E0182FD12C09081809156
:1008400080018F5F8F7320918101821751F0E091B9
:100850008001F0E0E959FE4F958F8093800101C03F
:100860008081FF91EF919F918F912F910F900FBEFB
:100870000F901F901895789484B5826084BD84B5DC
:10088000816084BD85B5826085BD85B5816085BD8B
:1008900080916E00816080936E0010928100809143
:1008A00081008260809381008091810081608093CB
:1008B0008100809180008160809380008091B100F0
:1008C00084608093B1008091B00081608093B0001B
:1008D00080917A00846080937A0080917A008260AF
:1008E00080937A0080917A00816080937A00809171
:1008F0007A00806880937A001092C100E7EAF0E005
:100900002491E3E9F0E08491882399F090E0880F46
:10091000991FFC01E859FF4FA591B491FC01EE58D5
:10092000FF4F859194918FB7F894EC91E22BEC9363
:100930008FBF80E00E94D900EDE9F0E02491E9E862
:10094000F0E084918823C1F090E0880F991FFC01AA
:10095000E859FF4FC591D491FC01EE58FF4FA59186
:10096000B4919FB7F8948881322F30958323888380
:10097000EC91E22BEC939FBFE0917701F09178012D
:1009800082E08083E0917301F09174011082E09124
:100990007501F09176018FEC808310927F01E091D8
:1009A0007B01F0917C0186E08083E0917901F091F8
:1009B0007A01808180618083E0917901F0917A01F0
:1009C000808188608083E0917901F0917A01808153
:1009D00080688083E0917901F0917A0180818F7D38
:1009E00080830E94B500892BE1F70E94B500892B16
:1009F000E1F30E9405016B017C01CDE1D0E00E9492
:100A0000B500892BE1F70E94B500892BE1F321970E
:100A1000B1F70E94B500892BE1F70E94B500892B40
:100A2000E1F30E9405016C197D098E099F0960930D
:100A300046017093470180934801909349010E94B9
:100A40008D0720E030E64AEE56E40E94E50660930A
:100A50004A0170934B0180934C0190934D0181E2C8
:100A600091E00E94740260914A0170914B01809163
:100A70004C0190914D010E94860220E030E04AE74F
:100A800054E460914A0170914B0180914C01909126
:100A90004D010E94E5069B01AC0160E070E080E83A
:100AA0009FE30E94E50660934201709343018093A7
:100AB00044019093450180E391E00E9474026091AB
:100AC00042017091430180914401909145010E943F
:100AD000860280904A0190904B01A0904C01B0900A
:100AE0004D0120E030E040EF51E4C501B4010E9427
:100AF000440820E030E044EB53E40E94E5066B013B
:100B00007C0160935A0170935B0180935C01909328
:100B10005D010E945707072E000C880B990B0E945D
:100B20008F079B01AC01C701B6010E94730620E04C
:100B300030E04AE754E40E94440860935601709301
:100B40005701809358019093590120E030E046E12D
:100B500053E4C501B4010E94440820E030E044EBB6
:100B600053E40E94E5066B017C016093520170938F
:100B7000530180935401909355010E945707072E0B
:100B8000000C880B990B0E948F079B01AC01C701D9
:100B9000B6010E94730620E030E04AE754E40E9468
:100BA000440860934E0170934F01809350019093DD
:100BB00051010E94B500892BE1F30E94B500892BF9
:100BC000E1F760915A0170915B0180915C01909115
:100BD0005D010E945E070E942A016091560170919A
:100BE000570180915801909159010E945E0762302F
:100BF000710548F0660F771F660F771F6550710902
:100C0000CB010197F1F781E00E94D9006091520178
:100C10007091530180915401909155010E945E079B
:100C20000E942A0160914E0170914F018091500104
:100C3000909151010E945E076230710548F0660F85
:100C4000771F660F771F65507109CB010197F1F788
:100C500080E00E94D90020E030E044EB52E4609153
:100C60004A0170914B0180914C0190914D010E947D
:100C7000440820E030E044EB53E40E94E5060E9483
:100C80005E070E942A010E946A0297CFE7E6F1E020
:100C90001382128288EE93E0A0E0B0E08483958313
:100CA000A683B78384E091E09183808385EC90E014
:100CB0009587848784EC90E09787868780EC90E026
:100CC000918B808B81EC90E0938B828B82EC90E017
:100CD000958B848B86EC90E0978B868B118E128E91
:100CE000138E148E08955058BB27AA270E948B0696
:100CF0000C9405080E94F70738F00E94FE0720F0C8
:100D000039F49F3F19F426F40C94F4070EF4E0959F
:100D1000E7FB0C94EE07E92F0E94160858F3BA1768
:100D2000620773078407950720F079F4A6F50C9401
:100D300038080EF4E0950B2EBA2FA02D0B01B90147
:100D400090010C01CA01A0011124FF27591B99F041
:100D5000593F50F4503E68F11A16F040A22F232F4D
:100D6000342F4427585FF3CF469537952795A7959D
:100D7000F0405395C9F77EF41F16BA0B620B730B44
:100D8000840BBAF09150A1F0FF0FBB1F661F771FB5
:100D9000881FC2F70EC0BA0F621F731F841F48F46A
:100DA000879577956795B795F7959E3F08F0B0CFF3
:100DB0009395880F08F09927EE0F979587950895DA
:100DC0000E94CA0708F481E008950E94F9060C9475
:100DD00005080E94FE0758F00E94F70740F029F42A
:100DE0005F3F29F00C94EE0751110C9439080C94D4
:100DF000F4070E94160868F39923B1F3552391F381
:100E0000951B550BBB27AA2762177307840738F079
:100E10009F5F5F4F220F331F441FAA1FA9F335D0D6
:100E20000E2E3AF0E0E832D091505040E695001C8A
:100E3000CAF72BD0FE2F29D0660F771F881FBB1F44
:100E4000261737074807AB07B0E809F0BB0B802D22
:100E5000BF01FF2793585F4F3AF09E3F510578F04E
:100E60000C94EE070C9439085F3FE4F3983ED4F3FA
:100E7000869577956795B795F7959F5FC9F7880F22
:100E8000911D9695879597F90895E1E0660F771F74
:100E9000881FBB1F621773078407BA0720F0621B05
:100EA000730B840BBA0BEE1F88F7E09508950E9430
:100EB0005E076894B1110C94390808950E941E08C9
:100EC00088F09F5798F0B92F9927B751B0F0E1F00B
:100ED000660F771F881F991F1AF0BA95C9F714C0BB
:100EE000B13091F00E943808B1E008950C943808B0
:100EF000672F782F8827B85F39F0B93FCCF38695F4
:100F000077956795B395D9F73EF490958095709550
:100F100061957F4F8F4F9F4F0895E89409C097FBCD
:100F20003EF490958095709561957F4F8F4F9F4FC0
:100F30009923A9F0F92F96E9BB279395F695879504
:100F400077956795B795F111F8CFFAF4BB0F11F4C7
:100F500060FF1BC06F5F7F4F8F4F9F4F16C088236E
:100F600011F096E911C0772321F09EE8872F762FA4
:100F700005C0662371F096E8862F70E060E02AF0E5
:100F80009A95660F771F881FDAF7880F96958795D1
:100F900097F90895990F0008550FAA0BE0E8FEEFA6
:100FA00016161706E807F907C0F012161306E4072D
:100FB000F50798F0621B730B840B950B39F40A2626
:100FC00061F0232B242B252B21F408950A2609F404
:100FD000A140A6958FEF811D811D089597F99F6708
:100FE00080E870E060E008959FEF80EC08950024B1
:100FF0000A941616170618060906089500240A947E
:1010000012161306140605060895092E0394000C03
:1010100011F4882352F0BB0F40F4BF2B11F460FF92
:1010200004C06F5F7F4F8F4F9F4F089557FD9058BB
:10103000440F551F59F05F3F71F04795880F97FB9C
:10104000991F61F09F3F79F0879508951216130656
:101050001406551FF2CF4695F1DF08C01616170685
:101060001806991FF1CF86957105610508940895BA
:10107000E894BB2766277727CB0197F908950E944C
:10108000CA0708F48FEF08950E9457080C940508CA
:101090000E94F70738F00E94FE0720F0952311F018
:1010A0000C94EE070C94F40711240C9439080E9458
:1010B000160870F3959FC1F3950F50E0551F629F7E
:1010C000F001729FBB27F00DB11D639FAA27F00DA1
:1010D000B11DAA1F649F6627B00DA11D661F829FC8
:1010E0002227B00DA11D621F739FB00DA11D621FAD
:1010F000839FA00D611D221F749F3327A00D611DCA
:10110000231F849F600D211D822F762F6A2F1124AB
:101110009F5750409AF0F1F088234AF0EE0FFF1FDE
:10112000BB1F661F771F881F91505040A9F79E3F35
:10113000510580F00C94EE070C9439085F3FE4F3FE
:10114000983ED4F3869577956795B795F795E7958B
:101150009F5FC1F7FE2B880F911D9695879597F994
:1011600008950E94CA07880B990B0895A1E21A2ED0
:10117000AA1BBB1BFD010DC0AA1FBB1FEE1FFF1F3B
:10118000A217B307E407F50720F0A21BB30BE40B8B
:10119000F50B661F771F881F991F1A9469F76095D2
:1011A0007095809590959B01AC01BD01CF0108958C
:1011B000EE0FFF1F0590F491E02D099481E090E07F
:0A11C000F8940C94E308F894FFCFB4
:1011CA0000000000FB01640192014802C301A10171
:1011DA00B5016E616E00696E66006F7666000D0A73
:1011EA0000506572696F646F20286D73293A200078
:1011FA004672657175656E6369612028487A293A75
:02120A002000C2
:00000001FF
